:020000040000fa
:080000000002040000000000f2
:020000040000fa
:0400080038030000b9
:020000040000fa
:04000c0038030000b5
:020000040000fa
:0400100038030000b1
:020000040000fa
:0400140038030000ad
:020000040000fa
:0400180038030000a9
:020000040000fa
:04001c0038030000a5
:020000040000fa
:0400200038030000a1
:020000040000fa
:04002400380300009d
:020000040000fa
:040028003803000099
:020000040000fa
:04002c003803000095
:020000040000fa
:040030003803000091
:020000040000fa
:04003400d0020000f6
:020000040000fa
:040038003803000089
:020000040000fa
:04003c003803000085
:020000040000fa
:040040003803000081
:020000040000fa
:040044000e030000a7
:020000040000fa
:040048003803000079
:020000040000fa
:04004c003803000075
:020000040000fa
:040050003803000071
:020000040000fa
:04005400380300006d
:020000040000fa
:040058003803000069
:020000040000fa
:04005c003803000065
:020000040000fa
:040060003803000061
:020000040000fa
:04006400380300005d
:020000040000fa
:040068003803000059
:020000040000fa
:04006c003803000055
:020000040000fa
:040070003803000051
:020000040000fa
:04007400380300004d
:020000040000fa
:040078003803000049
:020000040000fa
:04007c003803000045
:020000040000fa
:040080003803000041
:020000040000fa
:04008400380300003d
:020000040000fa
:040088003803000039
:020000040000fa
:04008c003803000035
:020000040000fa
:040090003803000031
:020000040000fa
:04009400380300002d
:020000040000fa
:040098003803000029
:020000040000fa
:04009c003803000025
:020000040000fa
:0400a0001403000045
:020000040000fa
:0400a400380300001d
:020000040000fa
:0400a8003803000019
:020000040000fa
:0400ac003803000015
:020000040000fa
:0400b0003803000011
:020000040000fa
:0400b400380300000d
:020000040000fa
:0400b8003803000009
:020000040000fa
:0400bc003803000005
:020000040000fa
:0400c0003803000001
:020000040000fa
:0400c40038030000fd
:020000040000fa
:0400c80038030000f9
:020000040000fa
:0400cc0038030000f5
:020000040000fa
:0400d00038030000f1
:020000040000fa
:0400d40038030000ed
:020000040000fa
:0400d80038030000e9
:020000040000fa
:0400dc0038030000e5
:020000040000fa
:0400e00038030000e1
:020000040000fa
:0400e40038030000dd
:020000040000fa
:0400e80038030000d9
:020000040000fa
:0400ec0038030000d5
:020000040000fa
:0400f00038030000d1
:020000040000fa
:0400f40038030000cd
:020000040000fa
:0400f80038030000c9
:020000040000fa
:0400fc0038030000c5
:020000040000fa
:0401000038030000c0
:020000040000fa
:0401040038030000bc
:020000040000fa
:0401080038030000b8
:020000040000fa
:04010c0038030000b4
:020000040000fa
:0401100038030000b0
:020000040000fa
:0401140038030000ac
:020000040000fa
:0401180038030000a8
:020000040000fa
:04011c0038030000a4
:020000040000fa
:0401200038030000a0
:020000040000fa
:04012400380300009c
:020000040000fa
:040128003803000098
:020000040000fa
:04012c003803000094
:020000040000fa
:040130003803000090
:020000040000fa
:04013400380300008c
:020000040000fa
:0402080038030000b7
:020000040000fa
:04020c0038030000b3
:020000040000fa
:0402100038030000af
:020000040000fa
:0402140038030000ab
:020000040000fa
:0402180038030000a7
:020000040000fa
:04021c0038030000a3
:020000040000fa
:04022000380300009f
:020000040000fa
:04022400380300009b
:020000040000fa
:040228003803000097
:020000040000fa
:04022c003803000093
:020000040000fa
:04023000380300008f
:020000040000fa
:04023400380300008b
:020000040000fa
:040238003803000087
:020000040000fa
:04023c003803000083
:020000040000fa
:04024000380300007f
:020000040000fa
:04024400380300007b
:020000040000fa
:040248003803000077
:020000040000fa
:04024c003803000073
:020000040000fa
:04025000380300006f
:020000040000fa
:04025400380300006b
:020000040000fa
:040258003803000067
:020000040000fa
:04025c003803000063
:020000040000fa
:04026000380300005f
:020000040000fa
:04026400380300005b
:020000040000fa
:040268003803000057
:020000040000fa
:04026c003803000053
:020000040000fa
:04027000380300004f
:020000040000fa
:04027400380300004b
:020000040000fa
:040278003803000047
:020000040000fa
:04027c003803000043
:020000040000fa
:04028000380300003f
:020000040000fa
:04028400380300003b
:020000040000fa
:040288003803000037
:020000040000fa
:04028c003803000033
:020000040000fa
:04029000380300002f
:020000040000fa
:04029400380300002b
:020000040000fa
:040298003803000027
:020000040000fa
:04029c003803000023
:020000040000fa
:0402a000380300001f
:020000040000fa
:0402a400380300001b
:020000040000fa
:0402a8003803000017
:020000040000fa
:0402ac003803000013
:020000040000fa
:0402b000380300000f
:020000040000fa
:0402b400380300000b
:020000040000fa
:0402b8003803000007
:020000040000fa
:0402bc003803000003
:020000040000fa
:0402c00038030000ff
:020000040000fa
:0402c40038030000fb
:020000040000fa
:0402c80038030000f7
:020000040000fa
:0402cc0038030000f3
:020000040000fa
:0402d00038030000ef
:020000040000fa
:0402d40038030000eb
:020000040000fa
:0402d80038030000e7
:020000040000fa
:0402dc0038030000e3
:020000040000fa
:0402e00038030000df
:020000040000fa
:0402e40038030000db
:020000040000fa
:0402e80038030000d7
:020000040000fa
:0402ec0038030000d3
:020000040000fa
:0402f00038030000cf
:020000040000fa
:0402f40038030000cb
:020000040000fa
:0402f80038030000c7
:020000040000fa
:0402fc0038030000c3
:020000040000fa
:0403000038030000be
:020000040000fa
:0403040038030000ba
:020000040000fa
:0403080038030000b6
:020000040000fa
:04030c0038030000b2
:020000040000fa
:0403100038030000ae
:020000040000fa
:0403140038030000aa
:020000040000fa
:0403180038030000a6
:020000040000fa
:04031c0038030000a2
:020000040000fa
:04032000380300009e
:020000040000fa
:04032400380300009a
:020000040000fa
:040328003803000096
:020000040000fa
:04032c003803000092
:020000040000fa
:04033000380300008e
:020000040000fa
:04033400380300008a
:020000040000fa
:10040000cf9120000e7f22000e0188000000000026
:10041000000020000000e000020032000001200087
:10042000200288000e00070000d5210001002000f6
:10043000810f70000100320014000700000020004e
:100440000000e00002003200000002000000000096
:1004500024160200000000000040da000000fe0048
:100460004440a900e00220000000e0000300320048
:1004700000002000a00188004440a8000000060001
:100480008a1f78008b1f7800000006009101880009
:10049000800478000000eb001a003700e28444007a
:1004a00032a0b4009905ba00e284440032a0b4003e
:1004b0009906ba00e284440032a0b4000006eb00c2
:1004c000476fde00fd07b200636ce10003003a00f5
:1004d000ebff07000000eb000a003700606ce10052
:1004e00004003a00005deb008b05e900fdff3e00d3
:1004f000040037006168e100010032000086eb0073
:100500000b00070019c7ba001905ba000e04e00075
:1005100003003a000a00e000e0ff3a000000060095
:10052000fe07b2009e0188008a047800f5ff3700bc
:10053000395dba008b05e9000c003200295dba0074
:100540008b05e900080032000c00e00003003a00cf
:10055000e284440032a0b400f5ff370019ddba0090
:100560008b05e900faff3a008904e800e1844400c1
:1005700032a0b400000006001215040000000000c4
:1005800060150400000000000816040000000000d0
:10059000cc150400000000003c0304000000000033
:1005a0003600f800809fbe00829fbe00849fbe0080
:1005b000869fbe000000fa00a00480006800600072
:1005c0000000e0000e00320020048000680060009f
:1005d0000000e0000a0032008460a90028c8bf00c3
:1005e0000040e90028e8b70028c8bf000004e00088
:1005f00003003a00a0c0b30028e8b700c10d07000f
:100600000080fa004f03be004f02be004f01be0043
:100610004f00be003600f900004006000000fa005e
:100620000080fa0000400600809fbe000000fa0033
:10063000b104800000002400008060000000e000a1
:1006400007003200310480000000240000806000b8
:100650000000e00002003200b0118000b0408800cd
:1006600087c0a9000080fa004f00be0000400600cd
:100670000040da000000fe00881f780002047800c5
:100680000801780012000700080040004f047800bd
:10069000000006000000fa00881f780000047800bf
:1006a000ea8157003fb9970088007800c0332000e6
:1006b0000e0007000000e000020035008040eb0063
:1006c000017478004f0478000080fa0000000600f2
:1006d0008001780002003700b15978000201e9007a
:1006e0000200e000fcff3a00000006006200fa0091
:1006f000889fbe008a1f780000057800810478007a
:10070000020478008300780080f92f000f00400079
:10071000a80007009a979f00a9979f000000eb0090
:10072000b09f9f001885fb008a04fb000a05ea00c1
:100730004f55de0050022000808f54000d00320023
:10074000e10f55000b003a000a017800880078009c
:100750002f9097009f91970003000100a0979f00a2
:100760000000e0008e0032003f9897000000e80093
:10077000b09f9f000a04440050022000808f540064
:10078000040032000900e000e6ff3a003f989700bd
:10079000840037000000eb00909f9f00809f9f0027
:1007a000f0979f00e0979f00d0979f00c0979f0011
:1007b0000700370041912000010050000000400078
:1007c0008190200061007800df98970001007000a0
:1007d000d09f9f008804780009047800384578008d
:1007e0008a00fb0040912000740007000000e00038
:1007f000f0ff3a00a1c2b300814f55000e003a004d
:10080000cf8897000180e900c08f9f00100078001a
:10081000c09f9f000000e00005003d000000ea00ce
:10082000c09f9f005f9897000020a000d09f9f006e
:100830000904e8000f003700c09f9f000000eb0094
:1008400005003700f2ff2700820f5000020032003f
:100850006a01b90002804000090478008804780029
:10086000b900fb000103b100e98f5000f5ff36002d
:10087000c09f9f00e0c2b300984f100002003200fa
:100880000080eb0019003700a0c2b300d84f100061
:1008900007003a00cf8897000180e900c08f9f00d1
:1008a00010007800a09f9f000804e80010003700a7
:1008b0000000eb00a09f9f00880078000500370033
:1008c000f3ff2700830f5000020032006a02b900d4
:1008d0000400410001047800880078003101fb0029
:1008e0000203b100e90f5100f5ff3600a09f9f0001
:1008f000984478008900fb00009020002f0007003a
:100900000000e000020032000804e80001003700a7
:100910008044eb00c97f9f0080c6b30080cf5400a5
:1009200004003a0098cf14000a003a0066405000d4
:1009300006003700c0c6b30080cf540005003a005f
:1009400098cf140003003a0065404000c07f9f002c
:100950000804e8001801fb00e3fb2f008f81410031
:1009600081f92f008f804000a0f92f000f00400078
:100970001e0007000000e00009003a00e1fb2f0024
:100980008f804000a0f92f000f0040006900070091
:100990000000e000020035000804e80061ff3700b5
:1009a0000080eb004f0578004f04be000080fa0085
:1009b0000000060001087800000006000200370071
:1009c0000304e00006003200000178000200780015
:1009d000b041780081cf5100f9ff3a0001003700a3
:1009e0000001eb000200780000000600889fbe00b6
:1009f0008a1f78000004780082447800030578009c
:100a000070c4b30080cf54000a003c0000c0e9006d
:100a100080cf54000f003d0050c2b30080cf54007f
:100a2000350032007c40400080cf540035003a0051
:100a30000800370010c6b30080cf54000500320014
:100a400030003500b0c9b30000c04400e24f500090
:100a50002c003e0028619000c0c4b300804f5100bc
:100a600006003a0011017800680051008008780003
:100a70005001be004000be000500370011017800a3
:100a800064005100800878001000be0010050700c7
:100a9000009cbe000294be00b80090007800900058
:100aa0000100e00002003d00d1c2b30008003700a1
:100ab000881090000118a30002003200b1c2b300f8
:100ac000030037000108a3000400320001c2b30094
:100ad000017578000000e80070049800780090002c
:100ae000000545006a0498008900fb0008007800b2
:100af000cc0007000b0037007800900009757800e3
:100b00000600370078009000000545000904e00069
:100b100001003a0059c2b300094d78000000e80016
:100b2000700498000000eb004f0578004f04be00f1
:100b3000000006000400fa00889fbe008a9fbe00e5
:100b40008c1f78000004780001067800f80d9000f2
:100b50007800900080855500080890008085550039
:100b60001808900080855500280890008085550061
:100b70003808900080855500480890008085550011
:100b80000002220090bf9f0000032300a0bf9f002f
:100b9000081090000028a30015003a000b00e000a8
:100ba000130034000b0578008a047800e20f55002a
:100bb0000100360029002000c801900009017800da
:100bc000ee80570058009000030001005004980088
:100bd0000000e0008c00320068089000090040002e
:100be000600c9800090555004240a900eeff3c004a
:100bf000780190000200e0000c003400c801900071
:100c00008c00780058009000030001005004980008
:100c10008080eb000000e0007c003200e8089000db
:100c20007800900000804000600c9800880c9000d4
:100c30000900e0001100340009057800e28f54003b
:100c4000010036002a002000c80190000a01780047
:100c5000ec805700580090000300010050049800f9
:100c60000000e00068003200680890000a004000c0
:100c7000600c98008a845400edff3700180990003a
:100c80000200e0000c003400c8019000e800900071
:100c90005800900003000100500498008080eb0091
:100ca0000000e00059003200e808900018089000a9
:100cb00000804000600c9800a80c90000900e00043
:100cc0001100340009057800e28f5400010036005d
:100cd0002a002000c80190000a017800ec8057002b
:100ce0005800900003000100500498000000e0004c
:100cf00045003200680890000a004000600c98002f
:100d00008a845400edff3700380990000200e000ab
:100d10000e003400e8009000180890008080400029
:100d2000c801900058009000030001005004980092
:100d30008080eb000000e00034003200e808900002
:100d40003808900000804000600c9800c80c9000ab
:100d50000900e0001100340009057800e28f54001a
:100d6000010036002a002000c80190000a01780026
:100d7000ec805700580090000300010050049800d8
:100d80000000e00020003200680890000a004000e7
:100d9000600c98008a845400edff37000810900022
:100da0008000eb000028a300180032000b00e000d8
:100db000160034008b04780009057800e28f540097
:100dc000010036002a002000c80190000a017800c6
:100dd000ee80570058009000030001005004980076
:100de0000000e00008003200680890000a0040009f
:100df000600c98008a8454004240a900eeff3c0039
:100e00008000eb00010037008080eb0001007800db
:100e10004f0678004f05be004f04be000080fa0068
:100e2000000006002f04b000889fbe008a9fbe000d
:100e30008c9fbe008e1f78000007780081f79f000e
:100e40003e04be002e05be005e0890000000e000db
:100e500002003d0060002000500f98008e007800d6
:100e600020fb2f000f00400016010700e20f50008a
:100e70000a003a0030002000100f9800b1c9b300fa
:100e80000ff0970081404000c08a2000e1cf500061
:100e90000d003e00808a20000b0037000000e000bb
:100ea0000f00340030002000100f9800b1c9b300cb
:100eb0000ff1970081404100408b2000e1cf5000ae
:100ec00001003e00008b2000ee009000b04878004a
:100ed000b06878001040780090409800f300370028
:100ee0000000e00005003a0022fb2f000f01410046
:100ef000001978008001eb00e70037006022b8009d
:100f00006033b8000800be000a01be000f040700ed
:100f10000000e00001003d000bf0a2007059270026
:100f20009f9897000088b900026a280013002000eb
:100f30000b040700640650009c9f9f0013003b00b9
:100f400063061600c0ff2f00000666008c01ea0051
:100f5000939f9f008d8b20000800be000a01be00f9
:100f6000070037000c08a300030032003d02be005a
:100f70002d03be00a00507000c86d100e8864600c0
:100f80000c00e000f7ff3c00180037000c00e00008
:100f900018003200c0ff2f00000666009c9f9f00d3
:100fa0008d8b20006000b8000200200003ff2300aa
:100fb000070037000c08a300030032003d02be000a
:100fc0002d03be008c0507000c86d100e886460084
:100fd0000c00e000f7ff3c000002be000203be0070
:100fe0000800be000a01be00ec0307000004be00ba
:100ff0000205be00de08900060c6b3000ff2970045
:10100000804f5200040032006000200062c4b30030
:10101000824f520002003a009f9a97006a80420075
:1010200081004000f1b79f0001037800f30f5300e7
:101030000200340037012000f7b79f0000c3b3005f
:10104000c0779f0056fb2f000f0343000e0078006f
:10105000a0b79f00060778003d0037000800be00db
:101060000a01be00270407000006be007fb19700fa
:1010700068015100f2b79f004240a9000c00340003
:101080004c0407000002be000203be000800be00c0
:101090000a01be004a0407006022b80046782d000d
:1010a00077192400540507000004be000205be00a5
:1010b000e80047008e0020000802be000a03be00c0
:1010c000b4b79f00c5b79f00d6b79f00e7b79f0092
:1010d0000c01be00010478000c003700a4002000c1
:1010e00005002000c0fd2f000f0040009f000700fa
:1010f0006fa89700ffa897000fb197009fb19700c6
:1011000005c3b300056441000001be00e00f5100bb
:10111000e08f5900030034000e07e900e10f47009b
:10112000eeff3a00880078003fb49700cfb49700f4
:101130005fb59700efb597000200370000c3b3001a
:10114000806078000e07e900fcff3b0068874000e4
:101150007fb397000600e000070034006022b8006b
:101160006033b8000800be000a01be001604070084
:101170000000e000b9ff3c000e0378002fb7970095
:1011800051fb2f008f804000010353009f9b97006d
:1011900067804300909f9f00020037000603e9002c
:1011a0000000e900010178008200780003c3b30069
:1011b000b1cf1100f9ff3200909f9f00de0990002f
:1011c00061c6b3000ff29700814f52000300320056
:1011d00061c4b300814f520002003a000000e800f1
:1011e0000a0037001000200051c6b3008ff29700ac
:1011f00081cf5200050032000540780050c4b20093
:101200000080fb000000e9004f00de008301400089
:10121000868f510001003400860178000300e00051
:101220001d00350000c3b300868f510006003d004d
:1012300062c279006940400041c3b300814f52004f
:1012400001003c00694050008300e900810041003a
:1012500001003700840178000302e90001037800ef
:10126000a142780080cf5200faff320091c3b30050
:10127000814f500001003a00054be8000400e000f7
:1012800005003d000201e9008301e8001f9b970073
:101290000603e800969f9f008ff397008700fb00ee
:1012a0001f9a97000e007800450007004f0778004e
:1012b0004f06be004f05be004f04be002f04b10014
:1012c00000000600889fbe0000047800e68440000d
:1012d0001900d0004500de00f27f2000820f500090
:1012e00010003a00000ceb00990478006f81640054
:1012f000200020001b003a00210190000200e000c5
:1013000018003a00110190000200e00015003a00b8
:10131000100020001100e000120032002000200028
:10132000100037000000e00004003a0001007800df
:10133000270107000000e00008003c00f200280040
:101340001901610001fe2300810c710021c02f00f2
:10135000010c40000080eb0002003700000ceb00a5
:101360000000eb004f04be0000000600881f78005c
:101370008a9fbe008c9fbe00000478000205be005c
:101380000406be000401be000a00be00f40207000d
:10139000008cbe000c01be00900307000005550044
:1013a00081855d002a0498003b04980008007800bd
:1013b0004f06be004f05be004f0478000000060037
:1013c000f0874700889fbe008a9fbe008c9fbe00aa
:1013d0008e1f780000047800814478000205be006a
:1013e000040678000b00e00002003c001b00200017
:1013f000aa91200060c6b30080cf54000e003200d6
:1014000060c4b30080cf54000b00320070c6b3003c
:1014100080cf54000300320070c4b30080cf54006a
:1014200081003a00e40f46007f0035005808900024
:10143000800f56007c003d000c06e80060c6b3003b
:1014400080cf54001000320060c4b30080cf54003d
:101450000d003200081090000038a30004003a008c
:1014600058089000808f550001003d005b0c9800eb
:10147000580890000c005000500c980002003b00ef
:101480000000eb00500c980018089000e800900055
:101490000c00e00026003c0002c3b300827078001c
:1014a0000000e800100c9800d80890000100e0004f
:1014b00003003c00881090000138a30005003200b2
:1014c000e8009000e2c2b300827078000000e800fb
:1014d000100c9800580890008c00ea00810f500012
:1014e00001003d000006ea008c00ea00210c980093
:1014f000000646005c0c98008b0f5600010034007b
:101500000b0678003c0c9800e8009000180890004a
:10151000008040000c0178008a0078006cfc070015
:10152000580890000c0650004c0c980090003700b2
:101530008c8f550018003d00008040000b017800a2
:101540008a00780062fc07001808900000804500bf
:10155000100c98008b0556002b0c9800d8089000b2
:101560000100e00003003c00881090000138a30057
:1015700006003200e8009000e2c2b30082707800fa
:10158000380890000000e800300c980058089000df
:10159000400c980076003700008040000c01780075
:1015a0008a0078004afc07001808900000004600f6
:1015b000100c98008c855500d80890000100e000c0
:1015c00003003c00881090000138a30005003200a1
:1015d000e8009000e2c2b300827078000000e800ea
:1015e000100c980058089000808f550001003400be
:1015f00080057800e8009000180890000080400006
:101600008c0045000b01780031fc070018089000a1
:101610000b004000100c9800580890008b055000fb
:101620002b0c98005200370018089000e80090003a
:101630009a7078000000e800100c9800d80890001c
:101640000100e00003003c00881090000138a30076
:1016500005003200e8009000e2c2b300827078001a
:101660000000e800100c9800580890000000e0000e
:10167000100034008b05e900808f55000100340014
:1016800080057800e8009000180890000080400075
:101690008a00e8000b0178000dfc07001808900094
:1016a0000b004000100c9800580890008b0550006b
:1016b0002b0c9800e8009000180890000080400073
:1016c000095878000007e8000c00e000040035002d
:1016d000b1c2b300014878008e04780004003700de
:1016e000d1c2b300014878008e0478000c06ea00ed
:1016f0007d8557008006eb0009003700a20020001e
:101700008c007800728057007d0007007fb0970042
:101710008fb89700016d7800000678008d06e8000c
:101720000c00e000f5ff3c000d00e00009003a006d
:101730008e04780000c3b300805c78000500370099
:101740008d06e900fc80570061c07e0002c3b30033
:10175000825c40000d00e000f9ff3c00e8009000d2
:10176000180890000080400080845400390c9800d4
:101770000810900074006000f00f50000e003a0056
:10178000980890007800900000804000a808900021
:1017900001004000b808900001004000c808900017
:1017a00001004000f8089000810f500002003d0049
:1017b00000805000000c98004f0778004f06be00d4
:1017c0004f05be004f04be000f01b100000006002f
:1017d000e600400011017800050028008502610044
:1017e0006f016100820878000200320012002000c0
:1017f00011003700a0019000120020000300e0005b
:101800000d003a00900190000300e0000a003a0049
:101810001000e00008003a00360037006403400082
:101820009608780080017800530b780090097800c2
:101830000408780070015100110278000400e000f3
:10184000f6ff3200130037006402400014037800f2
:101850004f33de00838141008308730080017800ec
:10186000d3037800cf3bde00140378000603430067
:10187000068a730013027800040242001003780005
:101880004f33de0086097200900178000388410022
:101890000201e90091017800ef8f5100eaff360064
:1018a0001000370080017800530378004f33dd00cb
:1018b0001002d10004087300640240009403780011
:1018c000cf3bdd001303d10086897300110378003c
:1018d0004f33dd009401d100030a73009108d10059
:1018e0000201e80091017800ff8f5100edff3e00fa
:1018f000ef88610091887200020078000000060005
:101900008002780001037800110009000203d8006a
:1019100080017800830a78000299b900020153001f
:101920009202980005007800000006004f89de0052
:1019300082017800d4003700889fbe008a9fbe00d5
:101940008c1f7800e0000700e700330003866c007e
:101950006450e100240032006420e10027003200de
:101960006150e100220032006120e10021003200dc
:101970008b854200eb07b1000134b800003ab80093
:101980000804420089844a00013ab8000030b800d7
:101990008880400009014a00040033000000400034
:1019a00081804800020149008b05e900c909dd007a
:1019b000830170000100320013002000c814de0013
:1019c0004814dd004709de001200b200c808de003e
:1019d00008847000d400070001f0a1000cf0a700fb
:1019e00001f0a000c90037006120e100cb00320007
:1019f0000801be000200be00f7ff37006150e100a1
:101a0000fcff3a00c500370003f0a200889fbe002b
:101a10008a9fbe008c1f7800ab000700b200330025
:101a20006450e1004f0032006420e10052003200b7
:101a300003826c0007003b000905d0000306d000bc
:101a4000820f54000c065d000200390002003200d3
:101a500089017800030678008582550004003d0066
:101a60000003fd008103fd008502ea008b85420032
:101a7000840f720002003b0060001000e08018003c
:101a80006011b8000005eb007a28e1000a00390077
:101a900006007800c75ddd00f707b200878075009b
:101aa0002d003700828171000a0178006105600015
:101ab0008180d1000080d3008502e900f9ff3b005e
:101ac000060440008784480002003b0060041400c4
:101ad000e0841c000988a300070032008a8171009d
:101ae00082817100610164008904d1000884d300ff
:101af0008b05e800170037000978a30013003a00af
:101b00000b00e000130034008b05e90008044400da
:101b100089844c000a4474000978a3000d003a003f
:101b20000b00e000070034008b05e90008044400c6
:101b300089844c0001003a000b0020000978a300c2
:101b4000f7ff32000001eb000200370082817100d4
:101b50000a017800740007000cf0a70001f0a00053
:101b60006a0037006420e10002003a00838f6c00b5
:101b70006a0033000801be000200be0063003700a7
:101b8000889fbe008a9fbe008c1f78004e00070011
:101b90005500330003866c006450e1002e003200d3
:101ba0006420e100330032006150e1002f00320078
:101bb0006120e1003100320085855500eb07b0005f
:101bc0000900200008042000050037000804440034
:101bd00089844c000a0031000603430087834b00d0
:101be0000001530081815b00f8ff33000203be0057
:101bf0000800a0000804440089844c00f6ff390066
:101c0000c639dd008301730001003200130020009b
:101c10008904d1000884d3000998a300050032008c
:101c20000800a7000300a0008904d1000884d300a5
:101c30008b05e8008904d1000884d3000001eb0083
:101c40000281d2003800070001f0a1000cf0a700cb
:101c500001f0a0002d0037006420e1002f003200c9
:101c60000801be000200be00f7ff37006120e1005e
:101c70002a0032006000b800f3ff370000002000a7
:101c800001f82700f0ff3700881f78000304780070
:101c90000300e00007003d0060001000e080180035
:101ca00060011900e081190002003b0001f02d00e5
:101cb000030037004200070008f0a70001f0a00071
:101cc0004f047800000006000004be006b0007000f
:101cd0000003be000405be000200be00670007004e
:101ce000844f7500000006000200be006450e10051
:101cf000050036006420e100020036000968a300f8
:101d000001003a000800be000160a0004f06780004
:101d10004f05be004f04be0000000600f0ff2f007c
:101d2000f1ff2700f9ff3700810020006180550096
:101d30000b003d000b00200061fe2f000100e100c0
:101d40001d00340082817100610164008904d100aa
:101d50000884d3000000e800faff3a007100200078
:101d6000610064000300700002006000090032009e
:101d700061044400e0844c000988a500050032009d
:101d80008b05e8006808e10002003a008904d100f0
:101d90000884d300f20f20000258e10005003d0046
:101da000c75ddd00f907b200898075000800780082
:101db000000006000bf827008b00780000000500eb
:101dc000889fbe008a9fbe000082700004027100de
:101dd00004827100260032000004be000200be0032
:101de0006011b8006b092000950220000182cf002d
:101df0000a0039000541b1000082cf000700390018
:101e00000541b1000982cf00040039000541b1004d
:101e10000882cf00010039000541b100054252009f
:101e2000120032000a003b008281710061016400ef
:101e30008100d1000080d3008984d3000884d300be
:101e40008b05e8000442e800f7ff3a00070037007e
:101e50000804440089844c00000048008180480048
:101e60008b05e9000442e900f9ff3a00aeff0700e4
:101e70004f05be004f04be0000000600c70ade008a
:101e8000f107b200f50fb20008003200e1cf4200c6
:101e9000020032000170a00024000500810f7000d4
:101ea000010032000408050044000500810f7000a5
:101eb00002003a00140005008502e900000040001d
:101ec00081c04800fcff3b000170a0002400050019
:101ed00081037800e9ff07000001be006000b80040
:101ee0000478a30013003a006220e10015003e00d0
:101ef0000d0039008301d1000281d3008180d3001d
:101f00008301d1000281d3008180d3008301d100fd
:101f10000281d3008180d3000538b000c42add00df
:101f2000f300b2008381720007f0a70003f0a00065
:101f300000000600f3ff2700f2ff2f006110b90038
:101f4000fbff370003ff2700f7ff37008f1fd1008b
:101f5000a80007008f87e9000000e00000000600ed
:101f6000839f68000100e00002003d006000100057
:101f7000e08018000300e00002003d006001110055
:101f8000e0811900c40007004f00e00002003b00a0
:101f900060001000e0801800000006002800fa0031
:101fa000889fbe008a9fbe008c9fbe0003866b0088
:101fb000c90007006400e100440032006408e10049
:101fc0004a0032006100e100460032006108e10091
:101fd00049003200ec0647006000b8003d02be0038
:101fe0003d03be00f48657006011b8003d04be00fa
:101ff0003d05be007d0320000b0037000000a0005f
:102000008d06e900130032000402420085824a0076
:1020100006034b0087834b0000004000818048008e
:1020200002014900838149000802520089825a0056
:102030000a035b008b835b00f0ff3b000802420059
:1020400089824a000a034b008b834b008d06e9000e
:10205000edff3a008482720086827200f707b200b8
:102060008782720001003200150020001e049000db
:102070003e0b900006035400e63fb0000368a30047
:10208000070032000000a7000500a0008301d10076
:102090000281d3008180d3000080d3000603e800d2
:1020a0008301d1000281d3008180d3000080d3005e
:1020b0000002eb000482d200a000070003f0a100a0
:1020c0000cf0a70003f0a00097003700640247005f
:1020d0006408e100910032003400be003401be000b
:1020e000f6ff37006108e1008c0032006011b80093
:1020f0006000b800f1ff370003ff27000200200056
:10210000fbff37001400fa00889fbe008a9fbe00c4
:102110008c9fbe000004be000205be0068004700a0
:102120000a90be000890be00b00007000070a70033
:102130000bf0a100304320009e02900080825200ec
:10214000b0fe2f000028e10011003d00b0fc2f0080
:102150000028e100150034001e0990008e08900050
:102160007e0090000501b0000201d1008180d30003
:102170000080d3008502e800fbff3a000b00e0007e
:1021800069003b0060001000e08018006600370026
:10219000f0ff2f00f1ff27000b00e00062003b0082
:1021a00001002800000020005f0037006000b80038
:1021b0005d0037004f89de0082017800b2003700f1
:1021c00007f0a20082013700809feb0009000700a2
:1021d0008f87e9000000e00000000600020ab90055
:1021e000001bb9000200b8008100420081004300da
:1021f00000000600889fbe008a9fbe008c9fbe0024
:102200000404be000605be00809fbe00829fbe0083
:10221000ad000700040678000800be000a01be00f9
:10222000a9000700840678004f03be004f02be00dd
:102230008d4f76007fb0970013003300f0ff2f0022
:102240008b8f6b0006003b000d0666000c00a7009c
:102250000a00370007f0a600100020000a0037002f
:10226000880f5200898f5a008a0f5b008b8f5b00aa
:10227000030039001000200001003e000000200093
:1022800007f0a7000000ea004f06be004f05be00a1
:102290004f04be00000006006022b80006022000c5
:1022a0000000d0008180d2000482d2008582d2005a
:1022b0000000a0000202520083825a000300310095
:1022c0000202420083824a000000a1000603e900e6
:1022d000f3ff3a0000000600680447000294be00c5
:1022e0000094be00fc0447008694be008494be00a7
:1022f000090078003d000700080078003b00070057
:1023000099007800814f70000b003b000800be0070
:102310007f0007004f00b10003003700f3ff2700e4
:10232000f2ff2f006110b9004f06be004f05be003e
:102330004f04be000080fa000000060018002000d4
:1023400057002000080453000d003d000600200047
:1023500097fc2f000740e1001e00340084827200c9
:10236000610260008301d1000281d3008180d3002b
:102370000080d3000804e800f8ff3a00470020007e
:102380006104600005047400040464000d00320060
:1023900061004000e080480060014900e0814900a0
:1023a00003b8a500070032000603e8006538e10025
:1023b00004003a008301d1000281d3008180d30060
:1023c0000080d300f87f20000830e10003003500d2
:1023d000080378006000b8006011b8004433dd00e5
:1023e000f300b20083017300000006008000780053
:1023f0005002be005003be004439de00f700b200b8
:10240000f37f200003016100090032000218e1009f
:1024100016003a0085017200830173008381730006
:102420000008200015003a0040002000130037008b
:1024300085017200830173008381730005003a00f7
:1024400004a8be0006a8be00100020000b00370044
:102450000201e9000402420085824a0006034b00a3
:1024600087834b000748a300f9ff32000740a00014
:1024700004a8be0006a8be0020002000800098002e
:102480009200980000000600881f7800030478007e
:102490000300e00007003d0060001000e08018002d
:1024a00060011900e081190002003b0001f02d00dd
:1024b000030037002400070008f0a70003f0a00085
:1024c0004f0478000000060005ff27000582610028
:1024d000070032000428e10001003200240005005a
:1024e0000600070001003a0044000500040805004a
:1024f00002000700f9ff3a00140005006f82610036
:1025000081027000850271008502720000000600e1
:10251000e48240001078a30007003200640240000b
:102520001178a3003400be001401be000400320084
:102530000330a700000006003500be001501be00f4
:102540000330a00000000600889fbe0000827000db
:10255000040271000482710024003200364320001e
:10256000c50020008383cf000a0039000541b10077
:102570008283cf00070039000541b1008183cf007d
:10258000040039000541b1008083cf00010039000b
:102590000541b10085c353006022b800120032002b
:1025a0000a003b0084827200610260008301d10056
:1025b0000281d3008180d3000080d3000603e800ad
:1025c0008743e800f7ff3a000700370000004000ab
:1025d0008180480002014900838149000603e90027
:1025e0008743e900f9ff3a0054ff07004f04be009b
:1025f00000000600000000002800fa00889fbe00ce
:102600008a9fbe008c9fbe0003866b0032ff0700ce
:102610000028a30064003a000128a30067003a00e4
:102620000008a30062003a000108a30065003a0018
:102630001e009000be08900081064000ed3fb100f2
:10264000f4805700ee019000111ab8008e09900036
:10265000311bb8009e099000311cb800511db80014
:10266000f485570046000700fe0190003a0007007d
:102670008b85e8003e0007008e09900040000700af
:10268000ee019000340007008b85e8003800070059
:102690008e099000400007009e0990001b18b800aa
:1026a000890440000a854800fe01900034000700bc
:1026b0008b85e80038000700ee019000300007002d
:1026c0008e0990001b18b800890440000a85480054
:1026d0000a98a30008003a000402420085824a00da
:1026e00006034b0087834b0008044c0089844c0090
:1026f0000a054d008d06e900848272008502730090
:102700004c3add0085027200010032001500200005
:10271000443ade001400b2004538de00cb45dd004f
:102720000b007000c540de00cb4ddd008b807000db
:102730004549de00cb55dd000b017100c551de00bf
:102740000d037800fdfe070003f0a1000cf0a700c8
:1027500003f0a000f4fe37001b18b800850240000b
:1027600006834800e0834b0060044c0007003700fc
:102770001b18b8000603400087834800faff3700a3
:102780001b18b8008703400008844800e0844c0010
:1027900060054d00000006001b18b800080440004a
:1027a00089844800faff37000108a300dbfe3a00e5
:1027b0005800be005801be00e3ff37000008a30028
:1027c000d6fe3a0009047800f9ff37000000000047
:1027d0002800fa00889fbe008a9fbe008c9fbe0022
:1027e00007067800878669000c003b000304780028
:1027f0008704780008f0a10009f0a100840f5000c0
:10280000858f5800860f5900890f5c000300330044
:102810000cf0a20001003a000cf0a100aefe07008f
:102820006400e1005f003200780147006408e100c5
:10283000610032006c014700748557003200be0011
:102840001201be003a04be001a05be001e0390002d
:10285000be0a90008503530006003d000004fd0001
:102860008104fd000205fd008305fd008703ea00e9
:10287000050378000df8a300040032006004140082
:10288000e0841c0060051d00e0851d006022b8008a
:102890007d0320000d38e1008006eb000b003900bd
:1028a0004433dd00f300b2008301730039003700c8
:1028b000848272000d027800e10664008b85d100ed
:1028c0000a85d3008984d3000884d3008703e900f4
:1028d000f7ff3b0008004000898048000a014900da
:1028e0008b81490004003b0060001000e08018006c
:1028f00060011900e08119000358a30009003200ab
:102900008d82720084827200610260008301d100b6
:102910000281d3008180d3000080d3000603e80049
:102920001b0037000348a30017003a000600e00030
:10293000170034000603e9000d00a3000000480062
:102940008180480002014900838149000348a300b7
:102950000f003a000600e000090034000603e90019
:102960000000400081804800020149008381490045
:1029700001003a000003eb000348a300f5ff32001a
:102980006022b80002003700848272006182660013
:102990006afe070003f0a1000cf0a70003f0a000fe
:1029a00061fe3700640147006408e10002003a005c
:1029b0000df8a30059fe3a003200be001201be001d
:0829c00059fe37000000000081
:020000040000fa
:1029c8000a0a0000233e0000205600006f6c000039
:1029d80074610000676500003a200000253400009b
:1029e8002e32000066200000202000002020000079
:1029f80020200000546500006d7000006572000022
:102a08006174000075720000653a0000202500001e
:0c2a1800342e00003266000000000000b8
:020000040000fa
:102a24000000fa00208a2000a603070040002000ce
:102a34000c010700cf80de00bbfb0700c04088000c
:102a4400d1408800c0408000d1408000326a20001c
:102a540033b52300b7fb07000200200003f0230076
:102a6400e8fb0700a2702d0033c2230043fc0700db
:102a7400c0408800d140880050002000f9000700c1
:102a8400cf80de00a8fb0700e0408800f14088000a
:102a9400e0408000f1408000326a200033b523001a
:102aa400a4fb0700e0408800f1408800808a2000f1
:102ab400840307007d040700daff37000000fa00f2
:102ac40001003700790407008040eb00208a2000d1
:102ad400620307000080fb00620060000000e00069
:102ae400f8ff3a00a1168000000420000080600076
:102af4000000e00013003a00c202a8001e01070013
:102b0400c222a8001c010700c242a8001a01070043
:102b1400c262a80018010700c282a80016010700bb
:102b2400c2a2a80014010700c2c2a8001201070033
:102b34001116800000082000008060001016880034
:102b440012003700c2c2a8000b010700c2a2a800ed
:102b540009010700c282a80007010700c262a80099
:102b640005010700c242a80003010700c222a80011
:102b740001010700c202a800ff000700111680002f
:102b8400000820000080600010168800000000008b
:102b9400cdff37006400fa0001003700430407004a
:102ba4008040eb00808a20002c0307000080fb009b
:102bb400620060000000e000f8ff3a006000b80026
:102bc400008fbe00e40047002f0009008018eb00ce
:102bd400c2408000d3408000e0408000f14080008b
:102be400829fbe00809fbe00404e2900801f780057
:102bf4000e007800a6f60700ea8757000e0078005a
:102c0400c700070000000000e5ff37000000fa00dd
:102c14001116800000082000008060000000e00021
:102c240002003a00c2e2a80001003700c2e2a90093
:102c34008040eb0040c6b300d80307001b04070024
:102c4400f3ff37000000fa0042040700a2c0b300fb
:102c5400a1822000205121004d030700a2c0b3002f
:102c6400818420000056210049030700a2c0b3005c
:102c7400618620008060210045030700a2c0b300e4
:102c840041882000c05c2100410307008040eb0024
:102c9400208a2000df0207008040eb00808a2000a9
:102ca400dc02070002000700ca000700feff37002d
:102cb4000000fa00150007000600070035000700b1
:102cc4004700070049000700580007000080fa0089
:102cd400000006000000fa000001eb006004200080
:102ce4007105200023742000804978008149780010
:102cf4008249780000102300203a88004827ef001a
:102d04004027ef000080fa00000006000000fa00ef
:102d1400c422ef00ca22ef00d022ef00d622ef0037
:102d2400dc22ef00e222ef00e822ef00c022ef00f5
:102d34000080eb0030168800e0012f006016880048
:102d44000080eb0090168800f03f2000c016880039
:102d5400f01f2300f0168800f03c2f002017880095
:102d64006820ef006a20ef00c026ef00c626ef00bf
:102d7400cc26ef00d226ef00d826ef00de26ef00a7
:102d8400e426ef00000c2000601988000080fa009f
:102d9400000006000000fa000021ef002108800076
:102da400f0fc2f0000806000200888000421a900a6
:102db40004c1a9000441a80000ee22001008880004
:102dc4008460a900a5c0a800a5a0a800a580a800ab
:102dd4009460a80005e1a8000080fa000000060045
:102de4000000fa000080fa00000006000000fa006b
:102df40020002800801188003222ef003422ef00e6
:102e040090012000c011880097c0a8003342a80098
:102e140097e0a90087c0a900b340a800b320a90087
:102e2400b300a8000080fa00000006000000fa00c9
:102e3400f0fc2f0060198800200e20000019880083
:102e44002223ef0000102100201988003023ef0016
:102e5400400020004019880021e3a8000080fa0007
:102e6400000006000200fa00000f78001e0078003f
:102e7400401988002023a8000000000000198000e9
:102e8400610060000000e000fcff320000188000d8
:102e94000080fa00000006000200fa00000f78002b
:102ea4001e007800401988002023a80000000000bc
:102eb40000198000610060000000e000fcff3200a7
:102ec4002104800000002200008060000000e00077
:102ed4000200320000188000000037000080fa0071
:102ee400000006000200fa00004f78000000000015
:102ef4009111800000102000008060000000e000bc
:102f0400fbff32001e00fb00a0118800000000003f
:102f140000000000000000000080fa00000006002d
:102f24000400fa0010079800070037001e00900004
:102f3400104f78001e0090000000e8001007980071
:102f44001e407800e7ff07001e0090001040780044
:102f54000004e000f5ff3a00d0c0b300e1ff070031
:102f6400a0c0b300dfff0700000000000000000065
:102f74000080fa00000006000600fa000000eb00e2
:102f8400000f78000d0037000000eb0010079800d8
:102f9400050037000000eb00200798001e00900099
:102fa4000000e800100798009e0090003041800067
:102fb400808f5000f7ff39001e0fe8009e00780054
:102fc40020418000808f5000efff39000080fa001c
:102fd400000006000000fa007003070077030700f2
:102fe400120037003040800000408800004080001c
:102ff4001008900030408800014080000000eb0081
:10300400900898000040800021802000990007006b
:10301400304080000000e00002003a000000eb00b5
:1030240020408800610307005c03070030408000f3
:103034000000e000ebff3a006a0037000ec8bf0052
:103044000040e9000ee8b7004040800000408800de
:10305400004080000000e0005b003200004080007f
:10306400c05890008140e90041589800560037004c
:1030740000408000500890004040880002408000da
:10308400504080006140800040599800004080001a
:10309400900078000007200080806000000220007b
:1030a400808f500009003a0000408000f1f82f00a2
:1030b4001088600001052000108870000040800026
:1030c400218020006b0007003b0037000040800097
:1030d4009000780000072000808060000007200036
:1030e400808f50001a003a0030030700004080002f
:1030f4002000900000000100280307000040800029
:10310400100078006f0060000000e00003003a0047
:1031140001408000f0f72f0091086000004080001b
:103124009000780000082000008060000000e000ab
:103134002100320001408000004080006050900077
:10314400c058980000408000840007001a0037002f
:1031540000408000300890000000e00016003200bb
:10316400004080003008900080007800004080001b
:10317400c90007000040800061802000c6000700ed
:103184000040800021802000c3000700014080002f
:103194000000eb00b008980000408000f1f82f0018
:1031a4001088600001062000108870000040800034
:1031b400218020002f00070040408000004088004c
:1031c400fa020700f5020700004080000000e0005a
:1031d4000400320000408000405890000004e000e9
:1031e400a3ff32000ec8bf000004e00093ff3a00c2
:1031f4001040800000408800004080000000e00093
:103204001600320010408000100890001040880022
:1032140002408000004080001000be0010099800a9
:1032240021099800e10207008e020700db02070073
:10323400004080009000780000072000808060003b
:1032440000052000808f500007003a0000408000f5
:10325400218020000700070003003700d302070085
:10326400da020700cd020700d00207000080fa004e
:10327400000006000c00fa0030079800410798008f
:103284004e00900090007800210798002e009000d6
:103294000000e00009003a004e009000be009000db
:1032a40001087800be0090000000eb009008980030
:1032b4000000eb0050079800250037000000eb00e9
:1032c400100798003e009000100078006f406000e6
:1032d400004f780005003700ae00900011079800f9
:1032e4002e00900090089000210798002e00900076
:1032f4000000e000070032009e80fb002e009000da
:10330400100078006f4060000080fb00808f500048
:10331400f1ff3d001e0090000000e00004003a00b0
:103324004e009000be0090000108780003003700b2
:103334001e009000be009000110898003e0090000e
:10334400ae009000110898000000eb0050079800b0
:103354005e0090000080fa00000006000a00fa00f7
:103364003007980040408000200798002e0090000d
:103374000000e00008003a00be00900041408800d0
:10338400be0090000000eb00d00898000000eb00a5
:10339400400798003d0037000000eb00100798003c
:1033a4002e009000c0589000014f78000b003700a9
:1033b4002e009000100798002e009000d008900076
:1033c400210798002e0090000000e0000300320066
:1033d4002e009000405890001e4f40002e00900098
:1033e4000000e000040032003e00900040589000cd
:1033f4009e4f5000eeff31002e0090000000e000d0
:10340400040032002e009000c05890001e40780046
:10341400014f50003e009000405890009e405000e4
:103424003e009000415898002e0090000000e000fb
:10343400080032003e009000c0589000014f780010
:103444002e009000405890009e4050002e009000a6
:10345400415898001e0090000000e00003003a006c
:103464003e00900040408800030037001e0090009a
:10347400be009000510898003e009000ae009000fd
:10348400510898000000eb00400798004e0090009f
:103494000080fa00000006000c00fa0030079800d3
:1034a400410798004e0090009000780011079800a2
:1034b4000000eb00200798003e0090009008900068
:1034c400010f7800240037009e0090003e00900019
:1034d400808f50001b003a002e0090000000e00096
:1034e40003003a004e0090001e08780003003700e5
:1034f4002e0090009e00780011089800ce009000e5
:1035040080802000808f50000b003a001e00e000f5
:10351400090032003e009000405890004047980057
:103524001e007800c05890004e40900080c04000bb
:103534001e007800415898000000eb0050079800e6
:103544000a0037009e009000210798001e0090009a
:1035540090089000110798001e0090000000e00001
:10356400d9ff3a0010002000500798005e00900038
:103574000080fa00000006000c00fa0040079800e2
:103584000040eb00004f7800404080002007980086
:103594000000eb00300798004e009000d008900027
:1035a40011079800270037002e0090004058900023
:1035b4001e4f4000ae0090004e009000808f5000df
:1035c4001b003a003e0090000000e00003003a00b7
:1035d4001e00900040408800030037003e00900029
:1035e4009e009000510898001e0090000000e0002a
:1035f400090032004e009000405890006047980047
:103604001e009000c05890006e40900080c04000a2
:103614001e009000415898004e0090009e40780093
:10362400415898000000eb00500798000a0037004a
:10363400ae009000310798002e009000d008900052
:10364400210798002e0090000000e000d6ff3a0009
:1036540010002000500798005e0090000080fa00df
:10366400000006000800fa0010079800414798007f
:103674005247980000408000900078000007200026
:103684008080600000062000808f50000b003a000c
:1036940000408000f1f82f00108860000105200030
:1036a4001088700001408000f0f72f00910860003e
:1036b400500020003007980053003700024080007b
:1036c40092089000f0f82f000080600001052000af
:1036d40001007000100998004e4090000004e000c2
:1036e4002400320000408000900078000008200090
:1036f400008060000000e0001800320001408000fb
:10370400f0f72f009108600000408000300890001e
:103714000000e00005003200004080008000eb0063
:10372400310898000040800093ff070080c0b30078
:10373400004f780000408000f1f82f0010886000ee
:1037440001052000108870001e4078000004a000cd
:103754000080fb00300798002b00370001408000f8
:103764000008200091087000210020003107980013
:10377400250037005e4090000004e00006003a0097
:1037840000408000f1f82f00108860000104200040
:10379400108870001400370000408000900078000a
:1037a400000720008080600000052000808f50000a
:1037b4000d003a0000408000f1f82f0010886000ee
:1037c400010420001088700000408000de4090005a
:1037d40041589800004080009e00900031089800f5
:1037e40000408000ddfe070001408000000820004a
:1037f400910870009e009000004080009dfe07002c
:1038040020002000300798003e0090000080fa005d
:10381400000006000400fa00000f78002147980019
:103824005e0107009e0078000000eb00800878002d
:103834002e409000e14060001e0078002140980076
:103844009e00780010c0b300c040980057010700e4
:103854000000eb000080fa00000006000600fa00f9
:1038640010079800414798004c0107001e00900083
:1038740020409000004f78009e4078004e41900018
:103884001e00900077ff0700004f78001e4078006c
:103894000080fb004300de00610060000004e000e3
:1038a400030032009e0090000040eb00a04098000e
:1038b4003e0107001e4078000080fb000080fa00f3
:1038c400000006000400fa00100798003301070006
:1038d4001e00900040409000e14f50000300320071
:1038e40060c0b300004f7800240037001e00900031
:1038f400204090000004e0000300320040c0b30008
:10390400004f78001d0037009e00900010c0b300e7
:10391400a04098001e00900010007800000f78006e
:103924001e0078000000e0001200320030408000e9
:103934000000e00003003a001e00780030408800d8
:1039440003003700214080001e0078009008980092
:103954001e007800204088001e0078009008900027
:103964001e009000010878009e0078000000eb0023
:10397400900898000040eb00004f78000b0107000e
:103984001e4078000080fb000080fa000000060062
:103994000600fa00000f78001107980042479800cb
:1039a400fe0007009e0090000000eb0090009800cd
:1039b4004e409000804078000174a1001e009000e9
:1039c4001e0007001e009000f1f82f001088600010
:1039d4001040a0009e009000f0f72f0091086000b6
:1039e4001e0090009e007800210098005040800046
:1039f40061408000804078001e009000415898008b
:103a04004e4090000004e000080035001e009000c5
:103a1400f1f82f0010886000010520001088700064
:103a2400218020001e00900012fe0700df00070026
:103a34000000eb000080fa00000006000600fa0017
:103a440010079800414798004e409000ef4f5000f7
:103a540005003600f0c0b3004047980010c0b30022
:103a6400004f7800020037000040eb00004f780060
:103a74004e409000ef4060001e0090008180fb00eb
:103a84006f81600001ff2f00108860001008710032
:0c3a94001e80fb000080fa00000006000d
:020000040000fa
:103aa00014080000100000000000000024080000be
:103ab000060000000200000096009600000a0000c8
:103ac0002a0800007e00000000000000000800003e
:103ad0001400000000000000000900001a000000af
:103ae00002000000686a6c00747a4c00000001005b
:103af0000002000004000800001000000000200088
:103b00002b2d230030000000a80800005800000002
:103b1000020000006e616e00004e41004e00690020
:103b20006e660000494e46000000000000000000e4
:103b30000024400000000000000000005940000088
:103b4000000000000088c300400000000000840066
:103b5000d79741000080e0003779c3004143170048
:103b60006e05b500b5b8930046f5f9003fe90300ce
:103b70004f384d00321d3000f9487700825a3c0022
:103b8000bf737f00dd4f1500750000001a090000ab
:103b900002000000020000003000000000000000f1
:020000040000fa
:103ba0000400fa0020479800314798007c00070085
:103bb0002e4090000004e00006003a000040800023
:103bc000f1f82f00108860001040a0007800070076
:103bd000230037003e4090000004e00003003a005c
:103be0002e409000004f780010003700ae4090004b
:103bf000014f780000408000405890001e4f400068
:103c00005040800061408000804078001e40780075
:103c1000014f5000020037002e4090001e4f400020
:103c20002e4090009e4f1000fbff3e001e04e0005f
:103c30000a00320000408000f1f82f001088600078
:103c40000102200010887000004080009e40780033
:103c50004158980000408000c1fd07005400070053
:103c60000080fa0000000600889fbe008a9fbe0008
:103c70008c9fbe008e1f78000f0778008f40880051
:103c80000040800090009000818747003004900041
:103c9000c004900050059000e00590007006900070
:103ca000800e9000a00090000000a10001400100e3
:103cb00000408000efb897000100a10021009800ab
:103cc00081408000e480400081805700110098000e
:103cd00038009800490098005a0098006b0098003e
:103ce0007c0098000d089800e48040008187570010
:103cf0004f0778004f06be004f05be004f04be00c0
:103d0000000006000200fa00504080006140800080
:103d100061004000e0804800504088006140880019
:103d20000ec8bf00e14f4000060032000ec8bf00c1
:103d30000040e8000ee8b7000000eb00000f78003c
:103d40000200370010002000000f78001e007800ed
:103d50000080fa00000006000000fa000000eb00fe
:103d6000104088000000eb00004088000000eb00dd
:103d7000404088000040eb000ee8b7006000b8004b
:103d800050408800614088000000eb00204088001f
:103d90000000eb00304088000080fa0000000600c0
:103da0000000fa00ff3ffc000080fa00000006005f
:103db0000000fa000000fc000080fa00000006008d
:103dc0000000fa000060fe000080fa00000006001b
:0c3dd0000000fa000080fa00000006006d
:020000040000fa
:020000040002f8
:04aff800bdfa00009e
:020000040000fa
:020000040002f8
:04affc007f3f000093
:00000001FF
